{"abi":[{"type":"constructor","inputs":[{"name":"initialOwner","type":"address","internalType":"address"},{"name":"_starkToken","type":"address","internalType":"address"}],"stateMutability":"nonpayable"},{"type":"function","name":"activeForumIds","inputs":[{"name":"","type":"uint256","internalType":"uint256"}],"outputs":[{"name":"","type":"uint256","internalType":"uint256"}],"stateMutability":"view"},{"type":"function","name":"answerById","inputs":[{"name":"","type":"uint256","internalType":"uint256"}],"outputs":[{"name":"id","type":"uint256","internalType":"uint256"},{"name":"author","type":"address","internalType":"address"},{"name":"descriptionCid","type":"string","internalType":"string"},{"name":"questionId","type":"uint256","internalType":"uint256"},{"name":"upvotes","type":"uint128","internalType":"uint128"},{"name":"downvotes","type":"uint128","internalType":"uint128"}],"stateMutability":"view"},{"type":"function","name":"answersIdsByQuestionId","inputs":[{"name":"","type":"uint256","internalType":"uint256"},{"name":"","type":"uint256","internalType":"uint256"}],"outputs":[{"name":"","type":"uint256","internalType":"uint256"}],"stateMutability":"view"},{"type":"function","name":"askQuestion","inputs":[{"name":"forumId","type":"uint256","internalType":"uint256"},{"name":"title","type":"string","internalType":"string"},{"name":"descriptionCid","type":"string","internalType":"string"},{"name":"repositoryUrl","type":"string","internalType":"string"},{"name":"tags","type":"string[]","internalType":"string[]"},{"name":"amount","type":"uint256","internalType":"uint256"}],"outputs":[{"name":"","type":"uint256","internalType":"uint256"}],"stateMutability":"nonpayable"},{"type":"function","name":"chosenAnswerByQuestionId","inputs":[{"name":"","type":"uint256","internalType":"uint256"}],"outputs":[{"name":"","type":"uint256","internalType":"uint256"}],"stateMutability":"view"},{"type":"function","name":"createForum","inputs":[{"name":"name","type":"string","internalType":"string"},{"name":"iconCid","type":"string","internalType":"string"}],"outputs":[{"name":"","type":"uint256","internalType":"uint256"}],"stateMutability":"nonpayable"},{"type":"function","name":"deleteForum","inputs":[{"name":"forumId","type":"uint256","internalType":"uint256"}],"outputs":[],"stateMutability":"nonpayable"},{"type":"function","name":"forumById","inputs":[{"name":"","type":"uint256","internalType":"uint256"}],"outputs":[{"name":"id","type":"uint256","internalType":"uint256"},{"name":"name","type":"string","internalType":"string"},{"name":"iconCid","type":"string","internalType":"string"},{"name":"amount","type":"uint256","internalType":"uint256"},{"name":"totalQuestions","type":"uint256","internalType":"uint256"},{"name":"deleted","type":"bool","internalType":"bool"}],"stateMutability":"view"},{"type":"function","name":"getAnswer","inputs":[{"name":"answerId","type":"uint256","internalType":"uint256"}],"outputs":[{"name":"","type":"tuple","internalType":"struct IStarkOverflow.Answer","components":[{"name":"id","type":"uint256","internalType":"uint256"},{"name":"author","type":"address","internalType":"address"},{"name":"descriptionCid","type":"string","internalType":"string"},{"name":"questionId","type":"uint256","internalType":"uint256"},{"name":"upvotes","type":"uint128","internalType":"uint128"},{"name":"downvotes","type":"uint128","internalType":"uint128"}]}],"stateMutability":"view"},{"type":"function","name":"getAnswers","inputs":[{"name":"questionId","type":"uint256","internalType":"uint256"},{"name":"pageSize","type":"uint64","internalType":"uint64"},{"name":"page","type":"uint64","internalType":"uint64"}],"outputs":[{"name":"","type":"tuple[]","internalType":"struct IStarkOverflow.Answer[]","components":[{"name":"id","type":"uint256","internalType":"uint256"},{"name":"author","type":"address","internalType":"address"},{"name":"descriptionCid","type":"string","internalType":"string"},{"name":"questionId","type":"uint256","internalType":"uint256"},{"name":"upvotes","type":"uint128","internalType":"uint128"},{"name":"downvotes","type":"uint128","internalType":"uint128"}]},{"name":"","type":"uint64","internalType":"uint64"},{"name":"","type":"bool","internalType":"bool"}],"stateMutability":"view"},{"type":"function","name":"getCorrectAnswer","inputs":[{"name":"questionId","type":"uint256","internalType":"uint256"}],"outputs":[{"name":"","type":"uint256","internalType":"uint256"}],"stateMutability":"view"},{"type":"function","name":"getForum","inputs":[{"name":"forumId","type":"uint256","internalType":"uint256"}],"outputs":[{"name":"","type":"tuple","internalType":"struct IStarkOverflow.Forum","components":[{"name":"id","type":"uint256","internalType":"uint256"},{"name":"name","type":"string","internalType":"string"},{"name":"iconCid","type":"string","internalType":"string"},{"name":"amount","type":"uint256","internalType":"uint256"},{"name":"totalQuestions","type":"uint256","internalType":"uint256"},{"name":"deleted","type":"bool","internalType":"bool"}]}],"stateMutability":"view"},{"type":"function","name":"getForums","inputs":[{"name":"pageSize","type":"uint64","internalType":"uint64"},{"name":"page","type":"uint64","internalType":"uint64"}],"outputs":[{"name":"","type":"tuple[]","internalType":"struct IStarkOverflow.Forum[]","components":[{"name":"id","type":"uint256","internalType":"uint256"},{"name":"name","type":"string","internalType":"string"},{"name":"iconCid","type":"string","internalType":"string"},{"name":"amount","type":"uint256","internalType":"uint256"},{"name":"totalQuestions","type":"uint256","internalType":"uint256"},{"name":"deleted","type":"bool","internalType":"bool"}]},{"name":"","type":"uint64","internalType":"uint64"},{"name":"","type":"bool","internalType":"bool"}],"stateMutability":"view"},{"type":"function","name":"getQuestion","inputs":[{"name":"questionId","type":"uint256","internalType":"uint256"}],"outputs":[{"name":"","type":"tuple","internalType":"struct IStarkOverflow.QuestionResponse","components":[{"name":"id","type":"uint256","internalType":"uint256"},{"name":"forumId","type":"uint256","internalType":"uint256"},{"name":"title","type":"string","internalType":"string"},{"name":"author","type":"address","internalType":"address"},{"name":"descriptionCid","type":"string","internalType":"string"},{"name":"amount","type":"uint256","internalType":"uint256"},{"name":"repositoryUrl","type":"string","internalType":"string"},{"name":"tags","type":"string[]","internalType":"string[]"},{"name":"status","type":"uint8","internalType":"enum IStarkOverflow.QuestionStatus"}]}],"stateMutability":"view"},{"type":"function","name":"getQuestions","inputs":[{"name":"forumId","type":"uint256","internalType":"uint256"},{"name":"pageSize","type":"uint64","internalType":"uint64"},{"name":"page","type":"uint64","internalType":"uint64"}],"outputs":[{"name":"","type":"tuple[]","internalType":"struct IStarkOverflow.QuestionResponse[]","components":[{"name":"id","type":"uint256","internalType":"uint256"},{"name":"forumId","type":"uint256","internalType":"uint256"},{"name":"title","type":"string","internalType":"string"},{"name":"author","type":"address","internalType":"address"},{"name":"descriptionCid","type":"string","internalType":"string"},{"name":"amount","type":"uint256","internalType":"uint256"},{"name":"repositoryUrl","type":"string","internalType":"string"},{"name":"tags","type":"string[]","internalType":"string[]"},{"name":"status","type":"uint8","internalType":"enum IStarkOverflow.QuestionStatus"}]},{"name":"","type":"uint64","internalType":"uint64"},{"name":"","type":"bool","internalType":"bool"}],"stateMutability":"view"},{"type":"function","name":"getStakedAmount","inputs":[{"name":"staker","type":"address","internalType":"address"},{"name":"questionId","type":"uint256","internalType":"uint256"}],"outputs":[{"name":"","type":"uint256","internalType":"uint256"}],"stateMutability":"view"},{"type":"function","name":"getTotalStakedOnQuestion","inputs":[{"name":"questionId","type":"uint256","internalType":"uint256"}],"outputs":[{"name":"","type":"uint256","internalType":"uint256"}],"stateMutability":"view"},{"type":"function","name":"getUser","inputs":[{"name":"user","type":"address","internalType":"address"}],"outputs":[{"name":"","type":"tuple","internalType":"struct IStarkOverflow.User","components":[{"name":"walletAddress","type":"address","internalType":"address"},{"name":"reputation","type":"uint256","internalType":"uint256"}]}],"stateMutability":"view"},{"type":"function","name":"getUserReputation","inputs":[{"name":"user","type":"address","internalType":"address"}],"outputs":[{"name":"","type":"uint256","internalType":"uint256"}],"stateMutability":"view"},{"type":"function","name":"getVote","inputs":[{"name":"voter","type":"address","internalType":"address"},{"name":"answerId","type":"uint256","internalType":"uint256"}],"outputs":[{"name":"","type":"bool","internalType":"bool"}],"stateMutability":"view"},{"type":"function","name":"hasUserVoted","inputs":[{"name":"","type":"address","internalType":"address"},{"name":"","type":"uint256","internalType":"uint256"}],"outputs":[{"name":"","type":"bool","internalType":"bool"}],"stateMutability":"view"},{"type":"function","name":"hasVoted","inputs":[{"name":"voter","type":"address","internalType":"address"},{"name":"answerId","type":"uint256","internalType":"uint256"}],"outputs":[{"name":"","type":"bool","internalType":"bool"}],"stateMutability":"view"},{"type":"function","name":"lastAnswerId","inputs":[],"outputs":[{"name":"","type":"uint256","internalType":"uint256"}],"stateMutability":"view"},{"type":"function","name":"lastForumId","inputs":[],"outputs":[{"name":"","type":"uint256","internalType":"uint256"}],"stateMutability":"view"},{"type":"function","name":"lastQuestionId","inputs":[],"outputs":[{"name":"","type":"uint256","internalType":"uint256"}],"stateMutability":"view"},{"type":"function","name":"markAnswerAsCorrect","inputs":[{"name":"questionId","type":"uint256","internalType":"uint256"},{"name":"answerId","type":"uint256","internalType":"uint256"}],"outputs":[],"stateMutability":"nonpayable"},{"type":"function","name":"owner","inputs":[],"outputs":[{"name":"","type":"address","internalType":"address"}],"stateMutability":"view"},{"type":"function","name":"questionById","inputs":[{"name":"","type":"uint256","internalType":"uint256"}],"outputs":[{"name":"id","type":"uint256","internalType":"uint256"},{"name":"forumId","type":"uint256","internalType":"uint256"},{"name":"title","type":"string","internalType":"string"},{"name":"author","type":"address","internalType":"address"},{"name":"descriptionCid","type":"string","internalType":"string"},{"name":"amount","type":"uint256","internalType":"uint256"},{"name":"repositoryUrl","type":"string","internalType":"string"},{"name":"status","type":"uint8","internalType":"enum IStarkOverflow.QuestionStatus"}],"stateMutability":"view"},{"type":"function","name":"questionsIdsByForumId","inputs":[{"name":"","type":"uint256","internalType":"uint256"},{"name":"","type":"uint256","internalType":"uint256"}],"outputs":[{"name":"","type":"uint256","internalType":"uint256"}],"stateMutability":"view"},{"type":"function","name":"renounceOwnership","inputs":[],"outputs":[],"stateMutability":"nonpayable"},{"type":"function","name":"reputation","inputs":[{"name":"","type":"address","internalType":"address"}],"outputs":[{"name":"","type":"uint256","internalType":"uint256"}],"stateMutability":"view"},{"type":"function","name":"stakeOnQuestion","inputs":[{"name":"questionId","type":"uint256","internalType":"uint256"},{"name":"amount","type":"uint256","internalType":"uint256"}],"outputs":[],"stateMutability":"nonpayable"},{"type":"function","name":"stakedInQuestionByUser","inputs":[{"name":"","type":"address","internalType":"address"},{"name":"","type":"uint256","internalType":"uint256"}],"outputs":[{"name":"","type":"uint256","internalType":"uint256"}],"stateMutability":"view"},{"type":"function","name":"starkToken","inputs":[],"outputs":[{"name":"","type":"address","internalType":"contract IERC20"}],"stateMutability":"view"},{"type":"function","name":"submitAnswer","inputs":[{"name":"questionId","type":"uint256","internalType":"uint256"},{"name":"descriptionCid","type":"string","internalType":"string"}],"outputs":[{"name":"","type":"uint256","internalType":"uint256"}],"stateMutability":"nonpayable"},{"type":"function","name":"totalStakedByQuestionId","inputs":[{"name":"","type":"uint256","internalType":"uint256"}],"outputs":[{"name":"","type":"uint256","internalType":"uint256"}],"stateMutability":"view"},{"type":"function","name":"transferOwnership","inputs":[{"name":"newOwner","type":"address","internalType":"address"}],"outputs":[],"stateMutability":"nonpayable"},{"type":"function","name":"updateForum","inputs":[{"name":"forumId","type":"uint256","internalType":"uint256"},{"name":"name","type":"string","internalType":"string"},{"name":"iconCid","type":"string","internalType":"string"}],"outputs":[],"stateMutability":"nonpayable"},{"type":"function","name":"userVotes","inputs":[{"name":"","type":"address","internalType":"address"},{"name":"","type":"uint256","internalType":"uint256"}],"outputs":[{"name":"","type":"bool","internalType":"bool"}],"stateMutability":"view"},{"type":"function","name":"voteOnAnswer","inputs":[{"name":"answerId","type":"uint256","internalType":"uint256"},{"name":"vote","type":"bool","internalType":"bool"}],"outputs":[],"stateMutability":"nonpayable"},{"type":"event","name":"ChosenAnswer","inputs":[{"name":"id","type":"uint256","indexed":true,"internalType":"uint256"},{"name":"questionId","type":"uint256","indexed":true,"internalType":"uint256"},{"name":"answerId","type":"uint256","indexed":true,"internalType":"uint256"},{"name":"authorAddress","type":"address","indexed":false,"internalType":"address"},{"name":"date","type":"uint256","indexed":false,"internalType":"uint256"}],"anonymous":false},{"type":"event","name":"OwnershipTransferred","inputs":[{"name":"previousOwner","type":"address","indexed":true,"internalType":"address"},{"name":"newOwner","type":"address","indexed":true,"internalType":"address"}],"anonymous":false},{"type":"event","name":"QuestionAnswered","inputs":[{"name":"id","type":"uint256","indexed":true,"internalType":"uint256"},{"name":"questionId","type":"uint256","indexed":true,"internalType":"uint256"},{"name":"answerId","type":"uint256","indexed":true,"internalType":"uint256"},{"name":"date","type":"uint256","indexed":false,"internalType":"uint256"}],"anonymous":false},{"type":"event","name":"QuestionStaked","inputs":[{"name":"staker","type":"address","indexed":true,"internalType":"address"},{"name":"questionId","type":"uint256","indexed":true,"internalType":"uint256"},{"name":"amount","type":"uint256","indexed":false,"internalType":"uint256"}],"anonymous":false},{"type":"event","name":"ReputationAdded","inputs":[{"name":"user","type":"address","indexed":true,"internalType":"address"},{"name":"amount","type":"uint256","indexed":false,"internalType":"uint256"},{"name":"newTotal","type":"uint256","indexed":false,"internalType":"uint256"}],"anonymous":false},{"type":"event","name":"VoteCast","inputs":[{"name":"voter","type":"address","indexed":true,"internalType":"address"},{"name":"answerId","type":"uint256","indexed":true,"internalType":"uint256"},{"name":"isUpvote","type":"bool","indexed":false,"internalType":"bool"},{"name":"answerAuthor","type":"address","indexed":false,"internalType":"address"},{"name":"reputationChange","type":"uint256","indexed":false,"internalType":"uint256"}],"anonymous":false},{"type":"error","name":"AlreadyVoted","inputs":[]},{"type":"error","name":"AmountMustBeGreaterThanZero","inputs":[]},{"type":"error","name":"AnswerDoesNotExist","inputs":[]},{"type":"error","name":"CannotVoteOnOwnAnswer","inputs":[]},{"type":"error","name":"ForumDeleted","inputs":[]},{"type":"error","name":"InvalidPage","inputs":[]},{"type":"error","name":"InvalidPageSize","inputs":[]},{"type":"error","name":"OwnableInvalidOwner","inputs":[{"name":"owner","type":"address","internalType":"address"}]},{"type":"error","name":"OwnableUnauthorizedAccount","inputs":[{"name":"account","type":"address","internalType":"address"}]},{"type":"error","name":"QuestionDoesNotExist","inputs":[]},{"type":"error","name":"QuestionNotResolved","inputs":[]},{"type":"error","name":"QuestionResolved","inputs":[]},{"type":"error","name":"ReentrancyGuardReentrantCall","inputs":[]},{"type":"error","name":"Unauthorized","inputs":[]}],"bytecode":{"object":"0x6080604052346100305761001a610014610104565b906101ac565b610022610035565b614f356104548239614f3590f35b61003b565b60405190565b5f80fd5b601f801991011690565b634e487b7160e01b5f52604160045260245ffd5b906100679061003f565b810190811060018060401b0382111761007f57604052565b610049565b90610097610090610035565b928361005d565b565b5f80fd5b60018060a01b031690565b6100b19061009d565b90565b6100bd816100a8565b036100c457565b5f80fd5b905051906100d5826100b4565b565b91906040838203126100ff57806100f36100fc925f86016100c8565b936020016100c8565b90565b610099565b6101226153898038038061011781610084565b9283398101906100d7565b9091565b90565b61013d6101386101429261009d565b610126565b61009d565b90565b61014e90610129565b90565b61015a90610145565b90565b5f1b90565b9061017360018060a01b039161015d565b9181191691161790565b61018690610145565b90565b90565b906101a161019c6101a89261017d565b610189565b8254610162565b9055565b6101c8916101bc6101c19261024e565b610151565b600461018c565b565b90565b90565b6101e46101df6101e9926101ca565b610126565b6101cd565b90565b6101f660016101d0565b90565b906102055f199161015d565b9181191691161790565b61022361021e610228926101cd565b610126565b6101cd565b90565b90565b9061024361023e61024a9261020f565b61022b565b82546101f9565b9055565b610257906102c8565b6102796102626101ec565b5f61027361026e61036c565b610380565b0161022e565b565b90565b61029261028d6102979261027b565b610126565b61009d565b90565b6102a39061027e565b90565b6102af906100a8565b9052565b91906102c6905f602085019401906102a6565b565b806102e36102dd6102d85f61029a565b6100a8565b916100a8565b146102f3576102f1906103f4565b565b6103166102ff5f61029a565b5f918291631e4fbdf760e01b8352600483016102b3565b0390fd5b5f90565b90565b90565b61033861033361033d9261031e565b61015d565b610321565b90565b6103697f9b779b17422d0df92223018b32b4d1fa46e071723d6817e2486d003becc55f00610324565b90565b61037461031a565b5061037d610340565b90565b90565b5f1c90565b60018060a01b031690565b61039f6103a491610383565b610388565b90565b6103b19054610393565b90565b6103bd90610129565b90565b6103c9906103b4565b90565b90565b906103e46103df6103eb926103c0565b6103cc565b8254610162565b9055565b5f0190565b6103fd5f6103a7565b610407825f6103cf565b9061043b6104357f8be0079c531659141344cd1fd0a4f28419497f9722a3daafe3b4186f6b6457e0936103c0565b916103c0565b91610444610035565b8061044e816103ef565b0390a356fe60806040526004361015610013575b612014565b61001d5f3561029c565b806301fa3bec1461029757806314f1060b1461029257806316946a0e1461028d5780633c1c84021461028857806342545825146102835780634681d7971461027e5780634a84c9ee146102795780635c6b62ec146102745780635f44aeac1461026f5780636b0dd90f1461026a5780636f77926b146102655780637009477714610260578063715018a61461025b578063720bcffb1461025657806376987777146102515780637949a9f71461024c5780637aa1d3b014610247578063833ed7fb1461024257806389b0beca1461023d5780638a9698e7146102385780638b3511f7146102335780638da5cb5b1461022e5780639a945dbe146102295780639d03610c14610224578063a1fbbe5c1461021f578063b5ab58dc1461021a578063b9f7945114610215578063baccbfdb14610210578063bc0b6d301461020b578063d46f96ed14610206578063d727b4b814610201578063daaeac5e146101fc578063db88176f146101f7578063df91328a146101f2578063e0ac9342146101ed578063e43bde1e146101e8578063eb5d7529146101e3578063ed684a7d146101de578063f2fde38b146101d95763f8e0b2980361000e57611fde565b611f76565b611f41565b611efb565b611e5c565b611dd3565b611d3f565b611d0a565b611c03565b6119b2565b6117fe565b6117a8565b611705565b6116d0565b61166c565b6115a3565b611472565b611139565b6110f5565b61109d565b610fe2565b610ea1565b610e03565b610dce565b610d86565b610bbe565b610b89565b610b3d565b610afa565b610ac5565b610a2b565b6109f2565b610819565b6107b7565b610782565b61064f565b61058b565b6104c3565b61045c565b61038d565b60e01c90565b60405190565b5f80fd5b5f80fd5b5f80fd5b90565b6102c0816102b4565b036102c757565b5f80fd5b905035906102d8826102b7565b565b5f80fd5b5f80fd5b5f80fd5b909182601f830112156103205781359167ffffffffffffffff831161031b57602001926001830284011161031657565b6102e2565b6102de565b6102da565b9190916040818403126103665761033e835f83016102cb565b92602082013567ffffffffffffffff81116103615761035d92016102e6565b9091565b6102b0565b6102ac565b610374906102b4565b9052565b919061038b905f6020850194019061036b565b565b346103be576103ba6103a96103a3366004610325565b9161258a565b6103b16102a2565b91829182610378565b0390f35b6102a8565b906020828203126103dc576103d9915f016102cb565b90565b6102ac565b90565b6103f86103f36103fd926102b4565b6103e1565b6102b4565b90565b9061040a906103e4565b5f5260205260405f2090565b1c90565b90565b61042d9060086104329302610416565b61041a565b90565b90610440915461041d565b90565b610459906104546009915f92610400565b610435565b90565b3461048c576104886104776104723660046103c3565b610443565b61047f6102a2565b91829182610378565b0390f35b6102a8565b91906040838203126104b957806104ad6104b6925f86016102cb565b936020016102cb565b90565b6102ac565b5f0190565b346104f2576104dc6104d6366004610491565b90612924565b6104e46102a2565b806104ee816104be565b0390f35b6102a8565b90610501906103e4565b5f5260205260405f2090565b634e487b7160e01b5f52603260045260245ffd5b5490565b5f5260205f2090565b61053781610521565b82101561055157610549600191610525565b910201905f90565b61050d565b61056190600b6104f7565b61056a81610521565b821015610587576105849161057e9161052e565b90610435565b90565b5f80fd5b346105bc576105b86105a76105a1366004610491565b90610556565b6105af6102a2565b91829182610378565b0390f35b6102a8565b60018060a01b031690565b6105d5906105c1565b90565b6105e1816105cc565b036105e857565b5f80fd5b905035906105f9826105d8565b565b91906040838203126106235780610617610620925f86016105ec565b936020016102cb565b90565b6102ac565b151590565b61063690610628565b9052565b919061064d905f6020850194019061062d565b565b346106805761067c61066b6106653660046105fb565b90612934565b6106736102a2565b9182918261063a565b0390f35b6102a8565b61068e906102b4565b9052565b5190565b60209181520190565b90825f9392825e0152565b601f801991011690565b6106d36106dc6020936106e1936106ca81610692565b93848093610696565b9586910161069f565b6106aa565b0190565b6106ee90610628565b9052565b906107679060a08061073861072660c085016107145f8901515f880190610685565b602088015186820360208801526106b4565b604087015185820360408701526106b4565b9461074b60608201516060860190610685565b61075d60808201516080860190610685565b01519101906106e5565b90565b61077f9160208201915f8184039101526106f2565b90565b346107b2576107ae61079d6107983660046103c3565b612a8a565b6107a56102a2565b9182918261076a565b0390f35b6102a8565b346107e8576107e46107d36107cd3660046105fb565b90612aa9565b6107db6102a2565b91829182610378565b0390f35b6102a8565b60106107f881610521565b821015610815576108129161080c9161052e565b90610435565b90565b5f80fd5b346108495761084561083461082f3660046103c3565b6107ed565b61083c6102a2565b91829182610378565b0390f35b6102a8565b67ffffffffffffffff1690565b6108648161084e565b0361086b57565b5f80fd5b9050359061087c8261085b565b565b91906040838203126108a6578061089a6108a3925f860161086f565b9360200161086f565b90565b6102ac565b5190565b60209181520190565b60200190565b906109339060a0806109046108f260c085016108e05f8901515f880190610685565b602088015186820360208801526106b4565b604087015185820360408701526106b4565b9461091760608201516060860190610685565b61092960808201516080860190610685565b01519101906106e5565b90565b90610940916108be565b90565b60200190565b9061095d610956836108ab565b80926108af565b908161096e602083028401946108b8565b925f915b83831061098157505050505090565b909192939460206109a361099d83856001950387528951610936565b97610943565b9301930191939290610972565b6109b99061084e565b9052565b6040906109e96109de6109f09597969460608401908482035f860152610949565b9660208301906109b0565b019061062d565b565b34610a2657610a22610a0e610a0836600461087e565b90612ca0565b610a199391936102a2565b938493846109bd565b0390f35b6102a8565b34610a5c57610a58610a47610a413660046105fb565b90612f1d565b610a4f6102a2565b9182918261063a565b0390f35b6102a8565b90602082820312610a7a57610a77915f016105ec565b90565b6102ac565b610a88906105cc565b9052565b90602080610aae93610aa45f8201515f860190610a7f565b0151910190610685565b565b9190610ac3905f60408501940190610a8c565b565b34610af557610af1610ae0610adb366004610a61565b612f94565b610ae86102a2565b91829182610ab0565b0390f35b6102a8565b34610b2957610b13610b0d366004610491565b906132b7565b610b1b6102a2565b80610b25816104be565b0390f35b6102a8565b5f910312610b3857565b6102ac565b34610b6b57610b4d366004610b2e565b610b55613310565b610b5d6102a2565b80610b67816104be565b0390f35b6102a8565b610b8690610b81600c915f92610400565b610435565b90565b34610bb957610bb5610ba4610b9f3660046103c3565b610b70565b610bac6102a2565b91829182610378565b0390f35b6102a8565b34610bee57610bea610bd9610bd43660046103c3565b61331a565b610be16102a2565b91829182610378565b0390f35b6102a8565b9091606082840312610c2857610c25610c0e845f85016102cb565b93610c1c816020860161086f565b9360400161086f565b90565b6102ac565b5190565b60209181520190565b60200190565b6fffffffffffffffffffffffffffffffff1690565b610c5e90610c40565b9052565b90610cd49060a080610ca560c08401610c815f8801515f870190610685565b610c9360208801516020870190610a7f565b604087015185820360408701526106b4565b94610cb860608201516060860190610685565b610cca60808201516080860190610c55565b0151910190610c55565b90565b90610ce191610c62565b90565b60200190565b90610cfe610cf783610c2d565b8092610c31565b9081610d0f60208302840194610c3a565b925f915b838310610d2257505050505090565b90919293946020610d44610d3e83856001950387528951610cd7565b97610ce4565b9301930191939290610d13565b604090610d7d610d72610d849597969460608401908482035f860152610cea565b9660208301906109b0565b019061062d565b565b34610dba57610db6610da2610d9c366004610bf3565b916135d5565b610dad9391936102a2565b93849384610d51565b0390f35b6102a8565b610dcb60015f90610435565b90565b34610dfe57610dde366004610b2e565b610dfa610de9610dbf565b610df16102a2565b91829182610378565b0390f35b6102a8565b34610e3157610e1b610e163660046103c3565b613a52565b610e236102a2565b80610e2d816104be565b0390f35b6102a8565b610e4a610e45610e4f926105c1565b6103e1565b6105c1565b90565b610e5b90610e36565b90565b610e6790610e52565b90565b90610e7490610e5e565b5f5260205260405f2090565b610e99610e9e92610e946008935f94610e6a565b610400565b610435565b90565b34610ed257610ece610ebd610eb73660046105fb565b90610e80565b610ec56102a2565b91829182610378565b0390f35b6102a8565b909182601f83011215610f115781359167ffffffffffffffff8311610f0c576020019260208302840111610f0757565b6102e2565b6102de565b6102da565b919060c083820312610fdd57610f2e815f85016102cb565b92602081013567ffffffffffffffff8111610fd85782610f4f9183016102e6565b929093604083013567ffffffffffffffff8111610fd35782610f729185016102e6565b929093606081013567ffffffffffffffff8111610fce5782610f959183016102e6565b929093608083013567ffffffffffffffff8111610fc957610fbb83610fc6928601610ed7565b93909460a0016102cb565b90565b6102b0565b6102b0565b6102b0565b6102b0565b6102ac565b3461101f5761101b61100a610ff8366004610f16565b98979097969196959295949394613f1b565b6110126102a2565b91829182610378565b0390f35b6102a8565b9061102e90610e5e565b5f5260205260405f2090565b90611044906103e4565b5f5260205260405f2090565b60ff1690565b61106690600861106b9302610416565b611050565b90565b906110799154611056565b90565b61109561109a92611090600f935f94611024565b61103a565b61106e565b90565b346110ce576110ca6110b96110b33660046105fb565b9061107c565b6110c16102a2565b9182918261063a565b0390f35b6102a8565b6110dc906105cc565b9052565b91906110f3905f602085019401906110d3565b565b3461112557611105366004610b2e565b611121611110613f3c565b6111186102a2565b918291826110e0565b0390f35b6102a8565b61113660025f90610435565b90565b3461116957611149366004610b2e565b61116561115461112a565b61115c6102a2565b91829182610378565b0390f35b6102a8565b90611178906103e4565b5f5260205260405f2090565b5f1c90565b61119561119a91611184565b61041a565b90565b6111a79054611189565b90565b60018060a01b031690565b6111c16111c691611184565b6111aa565b90565b6111d390546111b5565b90565b634e487b7160e01b5f52602260045260245ffd5b906001600283049216801561120a575b602083101461120557565b6111d6565b91607f16916111fa565b5f5260205f2090565b905f9291805490611237611230836111ea565b8094610696565b916001811690815f1461128e5750600114611252575b505050565b61125f9192939450611214565b915f925b81841061127657505001905f808061124d565b60018160209295939554848601520191019290611263565b92949550505060ff19168252151560200201905f808061124d565b906112b39161121d565b90565b634e487b7160e01b5f52604160045260245ffd5b906112d4906106aa565b810190811067ffffffffffffffff8211176112ee57604052565b6112b6565b9061131361130c926113036102a2565b938480926112a9565b03836112ca565b565b6fffffffffffffffffffffffffffffffff1690565b61133661133b91611184565b611315565b90565b611348905461132a565b90565b60801c90565b61135d6113629161134b565b611315565b90565b61136f9054611351565b90565b61137d90600a61116e565b906113895f830161119d565b91611396600182016111c9565b916113a3600283016112f3565b916113b06003820161119d565b916113c860046113c181850161133e565b9301611365565b90565b60209181520190565b6113f36113fc602093611401936113ea81610692565b938480936113cb565b9586910161069f565b6106aa565b0190565b61140e90610c40565b9052565b919461145f6114546114699360a0966114476114709a9c9b999c61143d60c08a01945f8b019061036b565b60208901906110d3565b86820360408801526113d4565b98606085019061036b565b6080830190611405565b0190611405565b565b346114a9576114a561148d6114883660046103c3565b611372565b9261149c9694969291926102a2565b96879687611412565b0390f35b6102a8565b906114b8906103e4565b5f5260205260405f2090565b6114d06114d591611184565b611050565b90565b6114e290546114c4565b90565b6114f09060056114ae565b906114fc5f830161119d565b91611509600182016112f3565b91611516600283016112f3565b916115236003820161119d565b9161153c60056115356004850161119d565b93016114d8565b90565b919461159061158560a09561157761159a956115a19a9c9b999c61156a60c08a01925f8b019061036b565b88820360208a01526113d4565b9086820360408801526113d4565b98606085019061036b565b608083019061036b565b019061062d565b565b346115da576115d66115be6115b93660046103c3565b6114e5565b926115cd9694969291926102a2565b9687968761153f565b0390f35b6102a8565b906116519060a08061162260c084016115fe5f8801515f870190610685565b61161060208801516020870190610a7f565b604087015185820360408701526106b4565b9461163560608201516060860190610685565b61164760808201516080860190610c55565b0151910190610c55565b90565b6116699160208201915f8184039101526115df565b90565b3461169c576116986116876116823660046103c3565b613f5c565b61168f6102a2565b91829182611654565b0390f35b6102a8565b906116ab90610e5e565b5f5260205260405f2090565b6116cd906116c8600d915f926116a1565b610435565b90565b34611700576116fc6116eb6116e6366004610a61565b6116b7565b6116f36102a2565b91829182610378565b0390f35b6102a8565b346117355761173161172061171b366004610a61565b613f7b565b6117286102a2565b91829182610378565b0390f35b6102a8565b60018060a01b031690565b61175590600861175a9302610416565b61173a565b90565b906117689154611745565b90565b61177760045f9061175d565b90565b61178390610e52565b90565b61178f9061177a565b9052565b91906117a6905f60208501940190611786565b565b346117d8576117b8366004610b2e565b6117d46117c361176b565b6117cb6102a2565b91829182611793565b0390f35b6102a8565b6117f66117fb926117f1600e935f94611024565b61103a565b61106e565b90565b3461182f5761182b61181a6118143660046105fb565b906117dd565b6118226102a2565b9182918261063a565b0390f35b6102a8565b9061183e906103e4565b5f5260205260405f2090565b60ff1690565b61185c61186191611184565b61184a565b90565b61186e9054611850565b90565b61187c906006611834565b906118885f830161119d565b916118956001820161119d565b916118a2600283016112f3565b916118af600382016111c9565b916118bc600483016112f3565b916118c96005820161119d565b916118e260086118db600685016112f3565b9301611864565b90565b634e487b7160e01b5f52602160045260245ffd5b6002111561190357565b6118e5565b90611912826118f9565b565b61191d90611908565b90565b61192990611914565b9052565b989795928960e0966119836119a897606061197b61199b97611990976119b09f9a61196e906119646101008b01945f8c019061036b565b60208a019061036b565b87820360408901526113d4565b9401906110d3565b8b820360808d01526113d4565b9260a08a019061036b565b87820360c08901526113d4565b940190611920565b565b346119ec576119e86119cd6119c83660046103c3565b611871565b946119df9896989491949392936102a2565b9889988961192d565b0390f35b6102a8565b5190565b60209181520190565b60200190565b5190565b60209181520190565b60200190565b90611a21916106b4565b90565b60200190565b90611a3e611a3783611a04565b8092611a08565b9081611a4f60208302840194611a11565b925f915b838310611a6257505050505090565b90919293946020611a84611a7e83856001950387528951611a17565b97611a24565b9301930191939290611a53565b611a9a90611914565b9052565b90611b519061010080611b46611b34611b10611aec6101208701611ac85f8b01515f8a0190610685565b611ada60208b015160208a0190610685565b60408a015188820360408a01526106b4565b611afe60608a01516060890190610a7f565b608089015187820360808901526106b4565b611b2260a089015160a0880190610685565b60c088015186820360c08801526106b4565b60e087015185820360e0870152611a2a565b940151910190611a91565b90565b90611b5e91611a9e565b90565b60200190565b90611b7b611b74836119f1565b80926119f5565b9081611b8c602083028401946119fe565b925f915b838310611b9f57505050505090565b90919293946020611bc1611bbb83856001950387528951611b54565b97611b61565b9301930191939290611b90565b604090611bfa611bef611c019597969460608401908482035f860152611b67565b9660208301906109b0565b019061062d565b565b34611c3757611c33611c1f611c19366004610bf3565b9161419f565b611c2a9391936102a2565b93849384611bce565b0390f35b6102a8565b90611cef9061010080611ce4611cd2611cae611c8a6101208701611c665f8b01515f8a0190610685565b611c7860208b015160208a0190610685565b60408a015188820360408a01526106b4565b611c9c60608a01516060890190610a7f565b608089015187820360808901526106b4565b611cc060a089015160a0880190610685565b60c088015186820360c08801526106b4565b60e087015185820360e0870152611a2a565b940151910190611a91565b90565b611d079160208201915f818403910152611c3c565b90565b34611d3a57611d36611d25611d203660046103c3565b61453f565b611d2d6102a2565b91829182611cf2565b0390f35b6102a8565b34611d6f57611d6b611d5a611d553660046103c3565b614660565b611d626102a2565b91829182610378565b0390f35b6102a8565b9091604082840312611dce575f82013567ffffffffffffffff8111611dc95783611d9f9184016102e6565b929093602082013567ffffffffffffffff8111611dc457611dc092016102e6565b9091565b6102b0565b6102b0565b6102ac565b34611e0757611e03611df2611de9366004611d74565b9291909161483a565b611dfa6102a2565b91829182610378565b0390f35b6102a8565b611e1581610628565b03611e1c57565b5f80fd5b90503590611e2d82611e0c565b565b9190604083820312611e575780611e4b611e54925f86016102cb565b93602001611e20565b90565b6102ac565b34611e8b57611e75611e6f366004611e2f565b906148d1565b611e7d6102a2565b80611e87816104be565b0390f35b6102a8565b606081830312611ef657611ea6825f83016102cb565b92602082013567ffffffffffffffff8111611ef15783611ec79184016102e6565b929093604082013567ffffffffffffffff8111611eec57611ee892016102e6565b9091565b6102b0565b6102b0565b6102ac565b34611f2d57611f17611f0e366004611e90565b93929092614bb3565b611f1f6102a2565b80611f29816104be565b0390f35b6102a8565b611f3e60035f90610435565b90565b34611f7157611f51366004610b2e565b611f6d611f5c611f32565b611f646102a2565b91829182610378565b0390f35b6102a8565b34611fa457611f8e611f89366004610a61565b614c27565b611f966102a2565b80611fa0816104be565b0390f35b6102a8565b611fb49060076104f7565b611fbd81610521565b821015611fda57611fd791611fd19161052e565b90610435565b90565b5f80fd5b3461200f5761200b611ffa611ff4366004610491565b90611fa9565b6120026102a2565b91829182610378565b0390f35b6102a8565b5f80fd5b5f90565b634e487b7160e01b5f52601160045260245ffd5b612039906102b4565b5f1981146120475760010190565b61201c565b5f1b90565b9061205d5f199161204c565b9181191691161790565b90565b9061207f61207a612086926103e4565b612067565b8254612051565b9055565b9061209d6120966102a2565b92836112ca565b565b6120a960c061208a565b90565b906120b6906102b4565b9052565b906120c4906105cc565b9052565b5f80fd5b67ffffffffffffffff81116120ea576120e66020916106aa565b0190565b6112b6565b90825f939282370152565b9092919261210f61210a826120cc565b61208a565b9381855260208501908284011161212b57612129926120ef565b565b6120c8565b61213b9136916120fa565b90565b52565b90565b61215861215361215d92612141565b6103e1565b610c40565b90565b9061216a90610c40565b9052565b634e487b7160e01b5f525f60045260245ffd5b61218b90516102b4565b90565b61219890516105cc565b90565b906121ac60018060a01b039161204c565b9181191691161790565b90565b906121ce6121c96121d592610e5e565b6121b6565b825461219b565b9055565b5190565b601f602091010490565b1b90565b919060086122069102916122005f19846121e7565b926121e7565b9181191691161790565b919061222661222161222e936103e4565b612067565b9083546121eb565b9055565b6122449161223e612018565b91612210565b565b5b818110612252575050565b8061225f5f600193612232565b01612247565b9190601f8111612275575b505050565b6122816122a693611214565b90602061228d846121dd565b830193106122ae575b61229f906121dd565b0190612246565b5f8080612270565b915061229f81929050612296565b906122cc905f1990600802610416565b191690565b816122db916122bc565b906002021790565b906122ed81610692565b9067ffffffffffffffff82116123ad576123118261230b85546111ea565b85612265565b602090601f831160011461234557918091612334935f92612339575b50506122d1565b90555b565b90915001515f8061232d565b601f1983169161235485611214565b925f5b8181106123955750916002939185600196941061237b575b50505002019055612337565b61238b910151601f8416906122bc565b90555f808061236f565b91936020600181928787015181550195019201612357565b6112b6565b906123bc916122e3565b565b6123c89051610c40565b90565b906123e66fffffffffffffffffffffffffffffffff9161204c565b9181191691161790565b6124046123ff61240992610c40565b6103e1565b610c40565b90565b90565b9061242461241f61242b926123f0565b61240c565b82546123cb565b9055565b60801b90565b906124516fffffffffffffffffffffffffffffffff199161242f565b9181191691161790565b9061247061246b612477926123f0565b61240c565b8254612435565b9055565b9061250960a0600461250f9461249e5f82016124985f8801612181565b9061206a565b6124b7600182016124b16020880161218e565b906121b9565b6124d0600282016124ca604088016121d9565b906123b2565b6124e9600382016124e360608801612181565b9061206a565b6125018282016124fb608088016123be565b9061240f565b0192016123be565b9061245b565b565b9061251b9161247b565b565b90565b5f5260205f2090565b5490565b61253681612529565b82101561255057612548600191612520565b910201905f90565b61050d565b9081549168010000000000000000831015612585578261257d9160016125839501815561252d565b90612210565b565b6112b6565b9091612594612018565b506125ac60086125a660068590611834565b01611864565b6125be6125b85f611908565b91611908565b03612701576125cd600361119d565b6125d690612030565b6125e190600361206a565b6125eb600361119d565b928391339184905f925f946125fe61209f565b965f88019061260c916120ac565b602087019061261a916120ba565b61262391612130565b60408501906126319161213e565b606084019061263f916120ac565b61264890612144565b608083019061265691612160565b61265f90612144565b60a082019061266d91612160565b600a836126799161116e565b9061268391612511565b600b8161268f916104f7565b6126989061251d565b826126a291612555565b8190829042927f4aa58ac8adacda758cc250038cb3b687ba0d702a9beaf25870aa8bd692aac1eb906126d3906103e4565b916126dd906103e4565b926126e7906103e4565b936126f06102a2565b6126fb819282610378565b0390a490565b5f63331a482760e21b815280612719600482016104be565b0390fd5b9061272f9161272a614c5e565b6127a7565b612737614c97565b565b90565b90565b9061274b60ff9161204c565b9181191691161790565b61275e90611908565b90565b90565b9061277961277461278092612755565b612761565b825461273f565b9055565b9160206127a592949361279e60408201965f8301906110d3565b019061036b565b565b906127bc6127b760068490611834565b612739565b90336127db6127d56127d0600386016111c9565b6105cc565b916105cc565b03612909576127f46127ef600a839061116e565b61273c565b916128016003840161119d565b61281361280d866102b4565b916102b4565b036128ed5761282460088201611864565b6128366128305f611908565b91611908565b036128d15761284a90600860019101612764565b61285f8161285a600c8690610400565b61206a565b61286a838290614cbb565b612879600182949293016111c9565b92426128b76128b16128ab7fcc8eb21fc4b1c71aff12ac7278e06510326acdb8bf502d40594e24ba07f004e4946103e4565b946103e4565b946103e4565b946128cc6128c36102a2565b92839283612784565b0390a4565b5f63331a482760e21b8152806128e9600482016104be565b0390fd5b5f632842f15960e11b815280612905600482016104be565b0390fd5b5f6282b42960e81b815280612920600482016104be565b0390fd5b9061292e9161271d565b565b5f90565b6129599161294f61295492612947612930565b50600e611024565b61103a565b6114d8565b90565b61296660c061208a565b90565b5f90565b606090565b5f90565b61297e61295c565b90602080808080808761298f612969565b81520161299a61296d565b8152016129a561296d565b8152016129b0612969565b8152016129bb612969565b8152016129c6612972565b81525050565b6129d4612976565b90565b906129e190610628565b9052565b90612a7c612a7360056129f661295c565b94612a0d612a055f830161119d565b5f88016120ac565b612a25612a1c600183016112f3565b6020880161213e565b612a3d612a34600283016112f3565b6040880161213e565b612a55612a4c6003830161119d565b606088016120ac565b612a6d612a646004830161119d565b608088016120ac565b016114d8565b60a084016129d7565b565b612a87906129e5565b90565b612aa1612aa691612a996129cc565b5060056114ae565b612a7e565b90565b612ace91612ac4612ac992612abc612018565b506008610e6a565b610400565b61119d565b90565b606090565b5f90565b612aee612ae9612af392612141565b6103e1565b61084e565b90565b612b0a612b05612b0f92612141565b6103e1565b6102b4565b90565b67ffffffffffffffff8111612b2a5760208091020190565b6112b6565b90612b41612b3c83612b12565b61208a565b918252565b612b4e612976565b90565b5f5b828110612b5f57505050565b602090612b6a612b46565b8184015201612b53565b90612b99612b8183612b2f565b92602080612b8f8693612b12565b9201910390612b51565b565b612baf612baa612bb49261084e565b6103e1565b6102b4565b90565b90565b612bce612bc9612bd392612bb7565b6103e1565b6102b4565b90565b612be5612beb919392936102b4565b926102b4565b8203918211612bf657565b61201c565b612c0a612c10919392936102b4565b926102b4565b91612c1c8382026102b4565b928184041490151715612c2b57565b61201c565b612c44612c3f612c49926102b4565b6103e1565b61084e565b90565b612c5b612c61919392936102b4565b926102b4565b8201809211612c6c57565b61201c565b90612c7b826108ab565b811015612c8c576020809102010190565b61050d565b6001612c9d91016102b4565b90565b919091612cab612ad1565b50612cb4612ad6565b50612cbd612930565b5080612cd1612ccb5f612ada565b9161084e565b14612f015782612ce9612ce35f612ada565b9161084e565b14612ee557612cf86010610521565b9283612d0c612d065f612af6565b916102b4565b14612ebf57612d4090612d3a612d2a612d2485612b9b565b92612b9b565b612d346001612bba565b90612bd6565b90612bfb565b9081612d54612d4e866102b4565b916102b4565b1015612e9a57612d71612d8191612d6b8491612b9b565b90612c4c565b612d7b6001612bba565b90612bd6565b9283612d95612d8f836102b4565b916102b4565b1015612e7e575b612dba612daa858490612bd6565b612db46001612bba565b90612c4c565b92612dc484612b74565b94612dce5f612af6565b5b80612de2612ddc886102b4565b916102b4565b1015612e4057612e3b90612e34612e196005612e13612e0d6010612e078c8890612c4c565b9061052e565b90610435565b906114ae565b89612e248492612a7e565b612e2e8383612c71565b52612c71565b5150612c91565b612dcf565b50612e77929450612e5d919350612e576001612bba565b90612c4c565b612e6f612e69856102b4565b916102b4565b109392612c30565b9291929190565b9250612e9483612e8e6001612bba565b90612bd6565b92612d9c565b505090612eb7612eb1612eac5f612af6565b612b74565b91612c30565b915f91929190565b50509050612ed4612ecf5f612af6565b612b74565b5f91612ee15f9293612ada565b9190565b5f634f718ccb60e11b815280612efd600482016104be565b0390fd5b5f6372dbed9760e11b815280612f19600482016104be565b0390fd5b612f4291612f38612f3d92612f30612930565b50600f611024565b61103a565b6114d8565b90565b612f4f604061208a565b90565b5f90565b612f5e612f45565b9060208083612f6b612f52565b815201612f76612969565b81525050565b612f84612f56565b90565b612f91604061208a565b90565b612f9c612f7c565b50612fd0612fb3612fae83600d6116a1565b61119d565b612fc7612fbe612f87565b935f85016120ba565b602083016120ac565b90565b90612fe591612fe0614c5e565b613094565b612fed614c97565b565b612ffb61300091611184565b61173a565b90565b61300d9054612fef565b90565b61301990610e52565b90565b60e01b90565b9050519061302f82611e0c565b565b9060208282031261304a57613047915f01613022565b90565b6102ac565b60409061307861307f949695939661306e60608401985f8501906110d3565b60208301906110d3565b019061036b565b565b6130896102a2565b3d5f823e3d90fd5b90565b90806130a86130a25f612af6565b916102b4565b1461329b576130c16130bc60068490611834565b612739565b6130cd60088201611864565b6130df6130d95f611908565b91611908565b0361327f576130f66130f16004613003565b61177a565b60206323b872dd9133906131265f61310d30613010565b956131318961311a6102a2565b9889978896879561301c565b85526004850161304f565b03925af1801561327a576131fd926131e0926131db9261324e575b5061316d8561316760058401916131628361119d565b612c4c565b9061206a565b61319f8561319961318a61318360083390610e6a565b8a90610400565b916131948361119d565b612c4c565b9061206a565b6131c7856131c16131b260098a90610400565b916131bc8361119d565b612c4c565b9061206a565b6131d560016005920161119d565b906114ae565b613091565b6131f76003849201916131f28361119d565b612c4c565b9061206a565b339190916132496132376132317f30cf6740f90e099bfaaf4c5823c9aa228f972d8a2a637770367c4b7f75c432c693610e5e565b936103e4565b936132406102a2565b91829182610378565b0390a3565b61326e9060203d8111613273575b61326681836112ca565b810190613031565b61314c565b503d61325c565b613081565b5f63331a482760e21b815280613297600482016104be565b0390fd5b5f635e85ae7360e01b8152806132b3600482016104be565b0390fd5b906132c191612fd3565b565b6132cb614d72565b6132d36132fd565b565b6132e96132e46132ee92612141565b6103e1565b6105c1565b90565b6132fa906132d5565b90565b61330e6133095f6132f1565b614dc0565b565b6133186132c3565b565b61333161333691613329612018565b506009610400565b61119d565b90565b606090565b67ffffffffffffffff81116133565760208091020190565b6112b6565b9061336d6133688361333e565b61208a565b918252565b61337c60c061208a565b90565b5f90565b61338b613372565b90602080808080808761339c612969565b8152016133a7612f52565b8152016133b261296d565b8152016133bd612969565b8152016133c861337f565b8152016133d361337f565b81525050565b6133e1613383565b90565b5f5b8281106133f257505050565b6020906133fd6133d9565b81840152016133e6565b9061342c6134148361335b565b92602080613422869361333e565b92019103906133e4565b565b60209181520190565b9061344481602093610685565b0190565b6134529054611189565b90565b60010190565b9061347861347261346b84610521565b809361342e565b92610525565b905f5b8181106134885750505090565b9091926134a86134a260019261349d87613448565b613437565b94613455565b910191909161347b565b906134bc9161345b565b90565b906134df6134d8926134cf6102a2565b938480926134b2565b03836112ca565b565b6134ea906134bf565b90565b5190565b906134fb826134ed565b81101561350c576020809102010190565b61050d565b9061351b82610c2d565b81101561352c576020809102010190565b61050d565b906135c76135be6004613542613372565b946135596135515f830161119d565b5f88016120ac565b613571613568600183016111c9565b602088016120ba565b613589613580600283016112f3565b6040880161213e565b6135a16135986003830161119d565b606088016120ac565b6135b86135af83830161133e565b60808801612160565b01611365565b60a08401612160565b565b6135d290613531565b90565b9291906135e0613339565b506135e9612ad6565b506135f2612930565b506136095f61360360068790611834565b0161119d565b61361b613615866102b4565b916102b4565b0361389f578061363361362d5f612ada565b9161084e565b14613883578161364b6136455f612ada565b9161084e565b146138675761366461365f600b86906104f7565b610521565b91826136786136725f612af6565b916102b4565b14613840576136ac906136a661369661369085612b9b565b92612b9b565b6136a06001612bba565b90612bd6565b90612bfb565b90816136c06136ba856102b4565b916102b4565b1015613819576136dd6136ed916136d78491612b9b565b90612c4c565b6136e76001612bba565b90612bd6565b91826137016136fb836102b4565b916102b4565b10156137fd575b613726613716848490612bd6565b6137206001612bba565b90612c4c565b9361374361373e61373687613407565b97600b6104f7565b6134e1565b9361374d5f612af6565b5b8061376161375b896102b4565b916102b4565b10156137bd576137b8906137b1613796600a61379061378b8b6137858c8890612c4c565b906134f1565b612181565b9061116e565b8a6137a184926135c9565b6137ab8383613511565b52613511565b5150612c91565b61374e565b509093506137dc9194506137f692506137d66001612bba565b90612c4c565b6137ee6137e8856102b4565b916102b4565b109392612c30565b9291929190565b91506138138261380d6001612bba565b90612bd6565b91613708565b505090915061383861383261382d5f612af6565b613407565b91612c30565b915f91929190565b50505090506138566138515f612af6565b613407565b5f916138635f9293612ada565b9190565b5f634f718ccb60e11b81528061387f600482016104be565b0390fd5b5f6372dbed9760e11b81528061389b600482016104be565b0390fd5b5f63043caffb60e01b8152806138b7600482016104be565b0390fd5b6138cc906138c7614d72565b613940565b565b6138d790610628565b90565b90565b906138f26138ed6138f9926138ce565b6138da565b825461273f565b9055565b634e487b7160e01b5f52603160045260245ffd5b61391a81612529565b801561393b576001900390613938613932838361252d565b90612232565b55565b6138fd565b61395660056139508184906114ae565b016114d8565b613a36576139726001600561396c8185906114ae565b016138dd565b61397c6010610521565b6139855f612af6565b5b80613999613993846102b4565b916102b4565b1015613a2e576139b46139ae6010839061052e565b90610435565b6139c66139c0856102b4565b916102b4565b146139d9576139d490612c91565b613986565b90613a199250613a0b613a05613a13926139ff6010916139f96001612bba565b90612bd6565b9061052e565b90610435565b91601061052e565b90612210565b613a2b613a26601061251d565b613911565b5b565b505050613a2c565b5f63410ad1c960e11b815280613a4e600482016104be565b0390fd5b613a5b906138bb565b565b90613a789a999897969594939291613a73614c5e565b613c5f565b90613a81614c97565b565b5090565b91613a929082613a83565b9067ffffffffffffffff8211613b5157613ab682613ab085546111ea565b85612265565b5f90601f8311600114613ae957918091613ad8935f92613add575b50506122d1565b90555b565b90915001355f80613ad1565b601f19831691613af885611214565b925f5b818110613b3957509160029391856001969410613b1f575b50505002019055613adb565b613b2f910135601f8416906122bc565b90555f8080613b13565b91936020600181928787013581550195019201613afb565b6112b6565b90613b619291613a87565b565b5090565b90565b5f80fd5b5f80fd5b5f80fd5b903590600160200381360303821215613bb8570180359067ffffffffffffffff8211613bb357602001916001820236038313613bae57565b613b72565b613b6e565b613b6a565b90821015613bd8576020613bd49202810190613b76565b9091565b61050d565b5f5260205f2090565b5490565b613bf381613be6565b821015613c0d57613c05600191613bdd565b910201905f90565b61050d565b929190613c2457613c2292613a87565b565b61216e565b919082549268010000000000000000841015613c5a5783613c52916001613c5896018155613bea565b90613c12565b565b6112b6565b9a969390999491979a9592955084613c7f613c795f612af6565b916102b4565b14613eff57613c9a6005613c94818d906114ae565b016114d8565b613ee357613cb0613cab6004613003565b61177a565b60206323b872dd913390613ce05f613cc730613010565b95613ceb8c613cd46102a2565b9889978896879561301c565b85526004850161304f565b03925af18015613ede57613eb2575b5060058a613d07916114ae565b613d1090613091565b858160030190613d1f8261119d565b90613d2991612c4c565b613d329161206a565b6001613d3d90612bba565b9060040190613d4b8261119d565b90613d5591612c4c565b613d5e9161206a565b613d68600261119d565b613d7190612030565b613d7c90600261206a565b613d86600261119d565b95600687613d9391611834565b613d9c90612739565b98878a5f0190613dab9161206a565b8b8a60010190613dba9161206a565b908960020191613dc992613b56565b338860030190613dd8916121b9565b908760040191613de792613b56565b908560060191613df692613b56565b5f8460080190613e0591612764565b808460050190613e149161206a565b8685613e1f91613b63565b955f613e2a90612af6565b5b80613e3e613e388a6102b4565b916102b4565b1015613e7357613e6e90613e69613e5760078901613b67565b613e638c8b8591613bbd565b91613c29565b612c91565b613e2b565b50613e9e939750613e97929650613eaf9550613e9291945060076104f7565b61251d565b8490612555565b613eaa60098490610400565b61206a565b90565b613ed29060203d8111613ed7575b613eca81836112ca565b810190613031565b613cfa565b503d613ec0565b613081565b5f63410ad1c960e11b815280613efb600482016104be565b0390fd5b5f635e85ae7360e01b815280613f17600482016104be565b0390fd5b90613f35999897969594939291613f30612018565b613a5d565b90565b5f90565b613f44613f38565b50613f4e5f6111c9565b90565b613f59613383565b90565b613f73613f7891613f6b613f51565b50600a61116e565b6135c9565b90565b613f92613f9791613f8a612018565b50600d6116a1565b61119d565b90565b606090565b67ffffffffffffffff8111613fb75760208091020190565b6112b6565b90613fce613fc983613f9f565b61208a565b918252565b613fde61012061208a565b90565b606090565b5f90565b613ff2613fd3565b90602080808080808080808a614006612969565b815201614011612969565b81520161401c61296d565b815201614027612f52565b81520161403261296d565b81520161403d612969565b81520161404861296d565b815201614053613fe1565b81520161405e613fe6565b81525050565b61406c613fea565b90565b5f5b82811061407d57505050565b602090614088614064565b8184015201614071565b906140b761409f83613fbc565b926020806140ad8693613f9f565b920191039061406f565b565b6140c461012061208a565b90565b6140d0906112f3565b90565b5490565b67ffffffffffffffff81116140ef5760208091020190565b6112b6565b90614106614101836140d7565b61208a565b918252565b5f5260205f2090565b9061411e826140d3565b614127816140f4565b92614135602085019161410b565b5f915b8383106141455750505050565b600160208192614154856140c7565b815201920192019190614138565b61416b90614114565b90565b52565b9061417b90611908565b9052565b90614189826119f1565b81101561419a576020809102010190565b61050d565b6141a7613f9a565b506141b0612ad6565b506141b9612930565b50816141cd6141c75f612ada565b9161084e565b1461451857826141e56141df5f612ada565b9161084e565b146144fc576141fe6141f9600783906104f7565b610521565b928361421261420c5f612af6565b916102b4565b146144d6576142469061424061423061422a86612b9b565b92612b9b565b61423a6001612bba565b90612bd6565b90612bfb565b918261425a614254866102b4565b916102b4565b10156144b157614277614287916142718591612b9b565b90612c4c565b6142816001612bba565b90612bd6565b928361429b614295836102b4565b916102b4565b1015614495575b6142c06142b0858590612bd6565b6142ba6001612bba565b90612c4c565b946142ca86614092565b946142d45f612af6565b5b806142e86142e28a6102b4565b916102b4565b1015614454576007856142fa916104f7565b868261430591612c4c565b61430e9161052e565b61431791610435565b60069061432391611834565b61432c90612739565b805f016143389061119d565b90806001016143469061119d565b908060020181600301614358906111c9565b82600401836005016143699061119d565b918460060193856007019560080161438090611864565b966143896140b9565b985f8a0190614397916120ac565b60208901906143a5916120ac565b6143ae906140c7565b60408801906143bc9161213e565b60608701906143ca916120ba565b6143d3906140c7565b60808601906143e19161213e565b60a08501906143ef916120ac565b6143f8906140c7565b60c08401906144069161213e565b61440f90614162565b60e083019061441d9161416e565b61010082019061442c91614171565b8790829061443a828461417f565b526144449161417f565b515061444f90612c91565b6142d5565b509093506144749194955061448e925061446e6001612bba565b90612c4c565b614486614480856102b4565b916102b4565b109392612c30565b9291929190565b92506144ab836144a56001612bba565b90612bd6565b926142a2565b5050506144ce6144c86144c35f612af6565b614092565b91612c30565b915f91929190565b505050506144eb6144e65f612af6565b614092565b5f916144f85f9293612ada565b9190565b5f634f718ccb60e11b815280614514600482016104be565b0390fd5b5f6372dbed9760e11b815280614530600482016104be565b0390fd5b61453c613fea565b90565b614547614534565b5060069061455491611834565b61455d90612739565b805f016145699061119d565b90806001016145779061119d565b908060020181600301614589906111c9565b826004018360050161459a9061119d565b91846006019385600701956008016145b190611864565b966145ba6140b9565b985f8a01906145c8916120ac565b60208901906145d6916120ac565b6145df906140c7565b60408801906145ed9161213e565b60608701906145fb916120ba565b614604906140c7565b60808601906146129161213e565b60a0850190614620916120ac565b614629906140c7565b60c08401906146379161213e565b61464090614162565b60e083019061464e9161416e565b61010082019061465d91614171565b90565b61467761467c9161466f612018565b50600c610400565b61119d565b90565b906146949493929161468f614d72565b614754565b90565b6146a160c061208a565b90565b6146ae9051610628565b90565b9061474060a06005614746946146d45f82016146ce5f8801612181565b9061206a565b6146ed600182016146e7602088016121d9565b906123b2565b61470660028201614700604088016121d9565b906123b2565b61471f6003820161471960608801612181565b9061206a565b6147386004820161473260808801612181565b9061206a565b0192016146a4565b906138dd565b565b90614752916146b1565b565b9291909250614763600161119d565b61476c90612030565b61477790600161206a565b614781600161119d565b93849391925f915f935f95614794614697565b975f8901906147a2916120ac565b6147ab91612130565b60208701906147b99161213e565b6147c291612130565b60408501906147d09161213e565b6147d990612af6565b60608401906147e7916120ac565b6147f090612af6565b60808301906147fe916120ac565b60a082019061480c916129d7565b600582614818916114ae565b9061482291614748565b601061482d9061251d565b8161483791612555565b90565b9061484e939291614849612018565b61467f565b90565b61486561486061486a92612bb7565b6103e1565b610c40565b90565b61487961487f91610c40565b91610c40565b01906fffffffffffffffffffffffffffffffff821161489a57565b61201c565b6040906148c86148cf94969593966148be60608401985f85019061062d565b60208301906110d3565b019061036b565b565b906148e66148e1600a849061116e565b61273c565b6148f15f820161119d565b6149036148fd856102b4565b916102b4565b03614b4d57614914600182016111c9565b614926614920336105cc565b916105cc565b14614b315761494961494461493d600e3390611024565b859061103a565b6114d8565b614b155760016149c7916149728261496d614966600e3390611024565b889061103a565b6138dd565b6149918461498c614985600f3390611024565b889061103a565b6138dd565b835f14614ae8576149c06149a483614851565b6149ba60048401916149b58361133e565b61486d565b9061240f565b5b016111c9565b916149dc6149d7600d85906116a1565b61119d565b6149e4612018565b50825f14614aa657614a00816149fa6001612bba565b90612c4c565b5b614a1681614a11600d88906116a1565b61206a565b614a1e612018565b5080614a32614a2c846102b4565b916102b4565b10155f14614a985790614a4491612bd6565b5b339192939093614a93614a81614a7b7f7cf189dafbb9f7b4cb0476a381c5370c61699def8f5092cb51f0711df231b2be95610e5e565b956103e4565b95614a8a6102a2565b9384938461489f565b0390a3565b614aa191612bd6565b614a45565b80614ab9614ab35f612af6565b916102b4565b115f14614ada57614ad481614ace6001612bba565b90612bd6565b5b614a01565b614ae35f612af6565b614ad5565b614b10614af483614851565b614b0a6004840191614b0583611365565b61486d565b9061245b565b6149c1565b5f637c9a1cf960e01b815280614b2d600482016104be565b0390fd5b5f630155bc1760e11b815280614b49600482016104be565b0390fd5b5f632842f15960e11b815280614b65600482016104be565b0390fd5b90614b7e94939291614b79614d72565b614b80565b565b92614ba9614bb19593614b9f614b9a6002959760056114ae565b613091565b9560018701613b56565b919201613b56565b565b90614bc094939291614b69565b565b614bd390614bce614d72565b614bd5565b565b80614bf0614bea614be55f6132f1565b6105cc565b916105cc565b14614c0057614bfe90614dc0565b565b614c23614c0c5f6132f1565b5f918291631e4fbdf760e01b8352600483016110e0565b0390fd5b614c3090614bc2565b565b90565b614c49614c44614c4e92614c32565b6103e1565b6102b4565b90565b614c5b6002614c35565b90565b614c66614e1f565b614c88614c71614c51565b5f614c82614c7d614e9b565b614eaf565b0161206a565b565b614c946001612bba565b90565b614cb9614ca2614c8a565b5f614cb3614cae614e9b565b614eaf565b0161206a565b565b90614cef614cea614ce26001614cdc614cd7602096600a61116e565b61273c565b016111c9565b936009610400565b61119d565b614d01614cfc6004613003565b61177a565b614d245f63a9059cbb959395614d2f614d186102a2565b9788968795869461301c565b845260048401612784565b03925af18015614d6d57614d41575b50565b614d619060203d8111614d66575b614d5981836112ca565b810190613031565b614d3e565b503d614d4f565b613081565b614d7a613f3c565b614d93614d8d614d88614eb2565b6105cc565b916105cc565b03614d9a57565b614dbc614da5614eb2565b5f91829163118cdaa760e01b8352600483016110e0565b0390fd5b614dc95f6111c9565b614dd3825f6121b9565b90614e07614e017f8be0079c531659141344cd1fd0a4f28419497f9722a3daafe3b4186f6b6457e093610e5e565b91610e5e565b91614e106102a2565b80614e1a816104be565b0390a3565b614e27614ebf565b614e2d57565b5f633ee5aeb560e01b815280614e45600482016104be565b0390fd5b5f90565b90565b90565b614e67614e62614e6c92614e4d565b61204c565b614e50565b90565b614e987f9b779b17422d0df92223018b32b4d1fa46e071723d6817e2486d003becc55f00614e53565b90565b614ea3614e49565b50614eac614e6f565b90565b90565b614eba613f38565b503390565b614ec7612930565b50614ee25f614edc614ed7614e9b565b614eaf565b0161119d565b614efb614ef5614ef0614c51565b6102b4565b916102b4565b149056fea26469706673582212204e3c5640fdbcc19670b6420918c1309341f6683e149b737ce741adfbeb5a3bac64736f6c634300081e0033","linkReferences":{}},"methodIdentifiers":{"activeForumIds(uint256)":"5c6b62ec","answerById(uint256)":"9d03610c","answersIdsByQuestionId(uint256,uint256)":"3c1c8402","askQuestion(uint256,string,string,string,string[],uint256)":"8a9698e7","chosenAnswerByQuestionId(uint256)":"720bcffb","createForum(string,string)":"e0ac9342","deleteForum(uint256)":"833ed7fb","forumById(uint256)":"a1fbbe5c","getAnswer(uint256)":"b5ab58dc","getAnswers(uint256,uint64,uint64)":"7949a9f7","getCorrectAnswer(uint256)":"df91328a","getForum(uint256)":"4681d797","getForums(uint64,uint64)":"5f44aeac","getQuestion(uint256)":"db88176f","getQuestions(uint256,uint64,uint64)":"daaeac5e","getStakedAmount(address,uint256)":"4a84c9ee","getTotalStakedOnQuestion(uint256)":"76987777","getUser(address)":"6f77926b","getUserReputation(address)":"baccbfdb","getVote(address,uint256)":"6b0dd90f","hasUserVoted(address,uint256)":"d46f96ed","hasVoted(address,uint256)":"42545825","lastAnswerId()":"ed684a7d","lastForumId()":"7aa1d3b0","lastQuestionId()":"9a945dbe","markAnswerAsCorrect(uint256,uint256)":"16946a0e","owner()":"8da5cb5b","questionById(uint256)":"d727b4b8","questionsIdsByForumId(uint256,uint256)":"f8e0b298","renounceOwnership()":"715018a6","reputation(address)":"b9f79451","stakeOnQuestion(uint256,uint256)":"70094777","stakedInQuestionByUser(address,uint256)":"89b0beca","starkToken()":"bc0b6d30","submitAnswer(uint256,string)":"01fa3bec","totalStakedByQuestionId(uint256)":"14f1060b","transferOwnership(address)":"f2fde38b","updateForum(uint256,string,string)":"eb5d7529","userVotes(address,uint256)":"8b3511f7","voteOnAnswer(uint256,bool)":"e43bde1e"},"id":29}